{
  "_format": "hh-sol-artifact-1",
  "contractName": "TokenDistributor",
  "sourceName": "contracts/TokenDistributor.sol",
  "abi": [
    {
      "inputs": [
        {
          "internalType": "address",
          "name": "_soulToken",
          "type": "address"
        },
        {
          "internalType": "address",
          "name": "_godsToken",
          "type": "address"
        }
      ],
      "stateMutability": "nonpayable",
      "type": "constructor"
    },
    {
      "inputs": [
        {
          "internalType": "address",
          "name": "owner",
          "type": "address"
        }
      ],
      "name": "OwnableInvalidOwner",
      "type": "error"
    },
    {
      "inputs": [
        {
          "internalType": "address",
          "name": "account",
          "type": "address"
        }
      ],
      "name": "OwnableUnauthorizedAccount",
      "type": "error"
    },
    {
      "anonymous": false,
      "inputs": [
        {
          "indexed": true,
          "internalType": "address",
          "name": "previousOwner",
          "type": "address"
        },
        {
          "indexed": true,
          "internalType": "address",
          "name": "newOwner",
          "type": "address"
        }
      ],
      "name": "OwnershipTransferred",
      "type": "event"
    },
    {
      "anonymous": false,
      "inputs": [
        {
          "indexed": true,
          "internalType": "address",
          "name": "recipient",
          "type": "address"
        },
        {
          "indexed": false,
          "internalType": "uint256",
          "name": "soulAmount",
          "type": "uint256"
        },
        {
          "indexed": false,
          "internalType": "uint256",
          "name": "godsAmount",
          "type": "uint256"
        }
      ],
      "name": "TokensMinted",
      "type": "event"
    },
    {
      "inputs": [
        {
          "internalType": "address",
          "name": "recipient",
          "type": "address"
        },
        {
          "internalType": "uint256",
          "name": "soulAmount",
          "type": "uint256"
        },
        {
          "internalType": "uint256",
          "name": "godsAmount",
          "type": "uint256"
        }
      ],
      "name": "authorizedMint",
      "outputs": [],
      "stateMutability": "nonpayable",
      "type": "function"
    },
    {
      "inputs": [],
      "name": "godsToken",
      "outputs": [
        {
          "internalType": "contract GodsToken",
          "name": "",
          "type": "address"
        }
      ],
      "stateMutability": "view",
      "type": "function"
    },
    {
      "inputs": [
        {
          "internalType": "address",
          "name": "",
          "type": "address"
        }
      ],
      "name": "hasMinted",
      "outputs": [
        {
          "internalType": "bool",
          "name": "",
          "type": "bool"
        }
      ],
      "stateMutability": "view",
      "type": "function"
    },
    {
      "inputs": [],
      "name": "mintFee",
      "outputs": [
        {
          "internalType": "uint256",
          "name": "",
          "type": "uint256"
        }
      ],
      "stateMutability": "view",
      "type": "function"
    },
    {
      "inputs": [
        {
          "internalType": "address",
          "name": "recipient",
          "type": "address"
        },
        {
          "internalType": "uint256",
          "name": "soulAmount",
          "type": "uint256"
        },
        {
          "internalType": "uint256",
          "name": "godsAmount",
          "type": "uint256"
        }
      ],
      "name": "mintTokens",
      "outputs": [],
      "stateMutability": "payable",
      "type": "function"
    },
    {
      "inputs": [],
      "name": "owner",
      "outputs": [
        {
          "internalType": "address",
          "name": "",
          "type": "address"
        }
      ],
      "stateMutability": "view",
      "type": "function"
    },
    {
      "inputs": [],
      "name": "renounceOwnership",
      "outputs": [],
      "stateMutability": "nonpayable",
      "type": "function"
    },
    {
      "inputs": [
        {
          "internalType": "uint256",
          "name": "newFee",
          "type": "uint256"
        }
      ],
      "name": "setMintFee",
      "outputs": [],
      "stateMutability": "nonpayable",
      "type": "function"
    },
    {
      "inputs": [],
      "name": "soulToken",
      "outputs": [
        {
          "internalType": "contract SoulToken",
          "name": "",
          "type": "address"
        }
      ],
      "stateMutability": "view",
      "type": "function"
    },
    {
      "inputs": [
        {
          "internalType": "address",
          "name": "newOwner",
          "type": "address"
        }
      ],
      "name": "transferOwnership",
      "outputs": [],
      "stateMutability": "nonpayable",
      "type": "function"
    },
    {
      "inputs": [],
      "name": "withdraw",
      "outputs": [],
      "stateMutability": "nonpayable",
      "type": "function"
    }
  ],
  "bytecode": "0x6080604052600060045534801561001557600080fd5b50604051610ffa380380610ffa8339818101604052810190610037919061026a565b33600073ffffffffffffffffffffffffffffffffffffffff168173ffffffffffffffffffffffffffffffffffffffff16036100aa5760006040517f1e4fbdf70000000000000000000000000000000000000000000000000000000081526004016100a191906102b9565b60405180910390fd5b6100b98161014360201b60201c565b5081600160006101000a81548173ffffffffffffffffffffffffffffffffffffffff021916908373ffffffffffffffffffffffffffffffffffffffff16021790555080600260006101000a81548173ffffffffffffffffffffffffffffffffffffffff021916908373ffffffffffffffffffffffffffffffffffffffff16021790555050506102d4565b60008060009054906101000a900473ffffffffffffffffffffffffffffffffffffffff169050816000806101000a81548173ffffffffffffffffffffffffffffffffffffffff021916908373ffffffffffffffffffffffffffffffffffffffff1602179055508173ffffffffffffffffffffffffffffffffffffffff168173ffffffffffffffffffffffffffffffffffffffff167f8be0079c531659141344cd1fd0a4f28419497f9722a3daafe3b4186f6b6457e060405160405180910390a35050565b600080fd5b600073ffffffffffffffffffffffffffffffffffffffff82169050919050565b60006102378261020c565b9050919050565b6102478161022c565b811461025257600080fd5b50565b6000815190506102648161023e565b92915050565b6000806040838503121561028157610280610207565b5b600061028f85828601610255565b92505060206102a085828601610255565b9150509250929050565b6102b38161022c565b82525050565b60006020820190506102ce60008301846102aa565b92915050565b610d17806102e36000396000f3fe60806040526004361061009c5760003560e01c8063715018a611610064578063715018a61461016757806374c38c311461017e5780638da5cb5b146101a957806397b610f4146101d4578063eddd0d9c146101fd578063f2fde38b146102265761009c565b806313966db5146100a15780632d5f4a1e146100cc57806338e21cce146100f75780633ccfd60b146101345780636831e2721461014b575b600080fd5b3480156100ad57600080fd5b506100b661024f565b6040516100c391906108f3565b60405180910390f35b3480156100d857600080fd5b506100e1610255565b6040516100ee919061098d565b60405180910390f35b34801561010357600080fd5b5061011e600480360381019061011991906109eb565b61027b565b60405161012b9190610a33565b60405180910390f35b34801561014057600080fd5b5061014961029b565b005b61016560048036038101906101609190610a7a565b610359565b005b34801561017357600080fd5b5061017c610511565b005b34801561018a57600080fd5b50610193610525565b6040516101a09190610aee565b60405180910390f35b3480156101b557600080fd5b506101be61054b565b6040516101cb9190610b18565b60405180910390f35b3480156101e057600080fd5b506101fb60048036038101906101f69190610a7a565b610574565b005b34801561020957600080fd5b50610224600480360381019061021f9190610b33565b6106ef565b005b34801561023257600080fd5b5061024d600480360381019061024891906109eb565b610701565b005b60045481565b600160009054906101000a900473ffffffffffffffffffffffffffffffffffffffff1681565b60036020528060005260406000206000915054906101000a900460ff1681565b6102a3610787565b60006102ad61054b565b73ffffffffffffffffffffffffffffffffffffffff16476040516102d090610b91565b60006040518083038185875af1925050503d806000811461030d576040519150601f19603f3d011682016040523d82523d6000602084013e610312565b606091505b5050905080610356576040517f08c379a000000000000000000000000000000000000000000000000000000000815260040161034d90610c03565b60405180910390fd5b50565b60045434101561039e576040517f08c379a000000000000000000000000000000000000000000000000000000000815260040161039590610c6f565b60405180910390fd5b600160009054906101000a900473ffffffffffffffffffffffffffffffffffffffff1673ffffffffffffffffffffffffffffffffffffffff166340c10f1984846040518363ffffffff1660e01b81526004016103fb929190610c8f565b600060405180830381600087803b15801561041557600080fd5b505af1158015610429573d6000803e3d6000fd5b50505050600260009054906101000a900473ffffffffffffffffffffffffffffffffffffffff1673ffffffffffffffffffffffffffffffffffffffff166340c10f1984836040518363ffffffff1660e01b815260040161048a929190610c8f565b600060405180830381600087803b1580156104a457600080fd5b505af11580156104b8573d6000803e3d6000fd5b505050508273ffffffffffffffffffffffffffffffffffffffff167f2e8ac5177a616f2aec08c3048f5021e4e9743ece034e8d83ba5caf76688bb4758383604051610504929190610cb8565b60405180910390a2505050565b610519610787565b610523600061080e565b565b600260009054906101000a900473ffffffffffffffffffffffffffffffffffffffff1681565b60008060009054906101000a900473ffffffffffffffffffffffffffffffffffffffff16905090565b61057c610787565b600160009054906101000a900473ffffffffffffffffffffffffffffffffffffffff1673ffffffffffffffffffffffffffffffffffffffff166340c10f1984846040518363ffffffff1660e01b81526004016105d9929190610c8f565b600060405180830381600087803b1580156105f357600080fd5b505af1158015610607573d6000803e3d6000fd5b50505050600260009054906101000a900473ffffffffffffffffffffffffffffffffffffffff1673ffffffffffffffffffffffffffffffffffffffff166340c10f1984836040518363ffffffff1660e01b8152600401610668929190610c8f565b600060405180830381600087803b15801561068257600080fd5b505af1158015610696573d6000803e3d6000fd5b505050508273ffffffffffffffffffffffffffffffffffffffff167f2e8ac5177a616f2aec08c3048f5021e4e9743ece034e8d83ba5caf76688bb47583836040516106e2929190610cb8565b60405180910390a2505050565b6106f7610787565b8060048190555050565b610709610787565b600073ffffffffffffffffffffffffffffffffffffffff168173ffffffffffffffffffffffffffffffffffffffff160361077b5760006040517f1e4fbdf70000000000000000000000000000000000000000000000000000000081526004016107729190610b18565b60405180910390fd5b6107848161080e565b50565b61078f6108d2565b73ffffffffffffffffffffffffffffffffffffffff166107ad61054b565b73ffffffffffffffffffffffffffffffffffffffff161461080c576107d06108d2565b6040517f118cdaa70000000000000000000000000000000000000000000000000000000081526004016108039190610b18565b60405180910390fd5b565b60008060009054906101000a900473ffffffffffffffffffffffffffffffffffffffff169050816000806101000a81548173ffffffffffffffffffffffffffffffffffffffff021916908373ffffffffffffffffffffffffffffffffffffffff1602179055508173ffffffffffffffffffffffffffffffffffffffff168173ffffffffffffffffffffffffffffffffffffffff167f8be0079c531659141344cd1fd0a4f28419497f9722a3daafe3b4186f6b6457e060405160405180910390a35050565b600033905090565b6000819050919050565b6108ed816108da565b82525050565b600060208201905061090860008301846108e4565b92915050565b600073ffffffffffffffffffffffffffffffffffffffff82169050919050565b6000819050919050565b600061095361094e6109498461090e565b61092e565b61090e565b9050919050565b600061096582610938565b9050919050565b60006109778261095a565b9050919050565b6109878161096c565b82525050565b60006020820190506109a2600083018461097e565b92915050565b600080fd5b60006109b88261090e565b9050919050565b6109c8816109ad565b81146109d357600080fd5b50565b6000813590506109e5816109bf565b92915050565b600060208284031215610a0157610a006109a8565b5b6000610a0f848285016109d6565b91505092915050565b60008115159050919050565b610a2d81610a18565b82525050565b6000602082019050610a486000830184610a24565b92915050565b610a57816108da565b8114610a6257600080fd5b50565b600081359050610a7481610a4e565b92915050565b600080600060608486031215610a9357610a926109a8565b5b6000610aa1868287016109d6565b9350506020610ab286828701610a65565b9250506040610ac386828701610a65565b9150509250925092565b6000610ad88261095a565b9050919050565b610ae881610acd565b82525050565b6000602082019050610b036000830184610adf565b92915050565b610b12816109ad565b82525050565b6000602082019050610b2d6000830184610b09565b92915050565b600060208284031215610b4957610b486109a8565b5b6000610b5784828501610a65565b91505092915050565b600081905092915050565b50565b6000610b7b600083610b60565b9150610b8682610b6b565b600082019050919050565b6000610b9c82610b6e565b9150819050919050565b600082825260208201905092915050565b7f5472616e73666572206661696c65640000000000000000000000000000000000600082015250565b6000610bed600f83610ba6565b9150610bf882610bb7565b602082019050919050565b60006020820190508181036000830152610c1c81610be0565b9050919050565b7f496e73756666696369656e742066656500000000000000000000000000000000600082015250565b6000610c59601083610ba6565b9150610c6482610c23565b602082019050919050565b60006020820190508181036000830152610c8881610c4c565b9050919050565b6000604082019050610ca46000830185610b09565b610cb160208301846108e4565b9392505050565b6000604082019050610ccd60008301856108e4565b610cda60208301846108e4565b939250505056fea2646970667358221220d9cca7afe6531c78bed2ba3d42e509025c7328559203de9b49ffbd08daf981fa64736f6c634300081c0033",
  "linkReferences": {},
  "deployedLinkReferences": {}
}