{
  "_format": "hh-sol-artifact-1",
  "contractName": "NodeStaking",
  "sourceName": "contracts/NodeStaking.sol",
  "abi": [
    {
      "inputs": [
        {
          "internalType": "address",
          "name": "_godsToken",
          "type": "address"
        },
        {
          "internalType": "address",
          "name": "_soulToken",
          "type": "address"
        }
      ],
      "stateMutability": "nonpayable",
      "type": "constructor"
    },
    {
      "inputs": [
        {
          "internalType": "address",
          "name": "owner",
          "type": "address"
        }
      ],
      "name": "OwnableInvalidOwner",
      "type": "error"
    },
    {
      "inputs": [
        {
          "internalType": "address",
          "name": "account",
          "type": "address"
        }
      ],
      "name": "OwnableUnauthorizedAccount",
      "type": "error"
    },
    {
      "inputs": [],
      "name": "ReentrancyGuardReentrantCall",
      "type": "error"
    },
    {
      "anonymous": false,
      "inputs": [
        {
          "indexed": true,
          "internalType": "address",
          "name": "previousOwner",
          "type": "address"
        },
        {
          "indexed": true,
          "internalType": "address",
          "name": "newOwner",
          "type": "address"
        }
      ],
      "name": "OwnershipTransferred",
      "type": "event"
    },
    {
      "anonymous": false,
      "inputs": [
        {
          "indexed": true,
          "internalType": "address",
          "name": "user",
          "type": "address"
        },
        {
          "indexed": true,
          "internalType": "string",
          "name": "nodeId",
          "type": "string"
        },
        {
          "indexed": false,
          "internalType": "bool",
          "name": "isGods",
          "type": "bool"
        },
        {
          "indexed": false,
          "internalType": "uint256",
          "name": "reward",
          "type": "uint256"
        }
      ],
      "name": "RewardsClaimed",
      "type": "event"
    },
    {
      "anonymous": false,
      "inputs": [
        {
          "indexed": true,
          "internalType": "address",
          "name": "user",
          "type": "address"
        },
        {
          "indexed": true,
          "internalType": "string",
          "name": "nodeId",
          "type": "string"
        },
        {
          "indexed": false,
          "internalType": "bool",
          "name": "isGods",
          "type": "bool"
        },
        {
          "indexed": false,
          "internalType": "uint256",
          "name": "amount",
          "type": "uint256"
        }
      ],
      "name": "Staked",
      "type": "event"
    },
    {
      "anonymous": false,
      "inputs": [
        {
          "indexed": true,
          "internalType": "address",
          "name": "user",
          "type": "address"
        },
        {
          "indexed": true,
          "internalType": "string",
          "name": "nodeId",
          "type": "string"
        },
        {
          "indexed": false,
          "internalType": "bool",
          "name": "isGods",
          "type": "bool"
        },
        {
          "indexed": false,
          "internalType": "uint256",
          "name": "amount",
          "type": "uint256"
        },
        {
          "indexed": false,
          "internalType": "uint256",
          "name": "reward",
          "type": "uint256"
        }
      ],
      "name": "Unstaked",
      "type": "event"
    },
    {
      "inputs": [],
      "name": "blocksPerDay",
      "outputs": [
        {
          "internalType": "uint256",
          "name": "",
          "type": "uint256"
        }
      ],
      "stateMutability": "view",
      "type": "function"
    },
    {
      "inputs": [
        {
          "internalType": "string",
          "name": "nodeId",
          "type": "string"
        },
        {
          "internalType": "bool",
          "name": "isGods",
          "type": "bool"
        }
      ],
      "name": "claimRewards",
      "outputs": [],
      "stateMutability": "nonpayable",
      "type": "function"
    },
    {
      "inputs": [
        {
          "internalType": "address",
          "name": "_token",
          "type": "address"
        },
        {
          "internalType": "uint256",
          "name": "amount",
          "type": "uint256"
        }
      ],
      "name": "emergencyWithdraw",
      "outputs": [],
      "stateMutability": "nonpayable",
      "type": "function"
    },
    {
      "inputs": [
        {
          "internalType": "string",
          "name": "nodeId",
          "type": "string"
        },
        {
          "internalType": "address",
          "name": "user",
          "type": "address"
        }
      ],
      "name": "getNodeStakeInfo",
      "outputs": [
        {
          "internalType": "uint256",
          "name": "godsAmount",
          "type": "uint256"
        },
        {
          "internalType": "uint256",
          "name": "godsStakeBlock",
          "type": "uint256"
        },
        {
          "internalType": "uint256",
          "name": "soulAmount",
          "type": "uint256"
        },
        {
          "internalType": "uint256",
          "name": "soulStakeBlock",
          "type": "uint256"
        }
      ],
      "stateMutability": "view",
      "type": "function"
    },
    {
      "inputs": [
        {
          "internalType": "string",
          "name": "nodeId",
          "type": "string"
        },
        {
          "internalType": "bool",
          "name": "isGods",
          "type": "bool"
        }
      ],
      "name": "getPendingRewards",
      "outputs": [
        {
          "internalType": "uint256",
          "name": "",
          "type": "uint256"
        }
      ],
      "stateMutability": "view",
      "type": "function"
    },
    {
      "inputs": [],
      "name": "godsRewardRate",
      "outputs": [
        {
          "internalType": "uint256",
          "name": "",
          "type": "uint256"
        }
      ],
      "stateMutability": "view",
      "type": "function"
    },
    {
      "inputs": [
        {
          "internalType": "address",
          "name": "",
          "type": "address"
        },
        {
          "internalType": "string",
          "name": "",
          "type": "string"
        }
      ],
      "name": "godsStakes",
      "outputs": [
        {
          "internalType": "uint256",
          "name": "",
          "type": "uint256"
        }
      ],
      "stateMutability": "view",
      "type": "function"
    },
    {
      "inputs": [
        {
          "internalType": "address",
          "name": "",
          "type": "address"
        },
        {
          "internalType": "string",
          "name": "",
          "type": "string"
        }
      ],
      "name": "godsStakingBlocks",
      "outputs": [
        {
          "internalType": "uint256",
          "name": "",
          "type": "uint256"
        }
      ],
      "stateMutability": "view",
      "type": "function"
    },
    {
      "inputs": [],
      "name": "godsToken",
      "outputs": [
        {
          "internalType": "contract IERC20",
          "name": "",
          "type": "address"
        }
      ],
      "stateMutability": "view",
      "type": "function"
    },
    {
      "inputs": [],
      "name": "owner",
      "outputs": [
        {
          "internalType": "address",
          "name": "",
          "type": "address"
        }
      ],
      "stateMutability": "view",
      "type": "function"
    },
    {
      "inputs": [],
      "name": "renounceOwnership",
      "outputs": [],
      "stateMutability": "nonpayable",
      "type": "function"
    },
    {
      "inputs": [],
      "name": "soulRewardRate",
      "outputs": [
        {
          "internalType": "uint256",
          "name": "",
          "type": "uint256"
        }
      ],
      "stateMutability": "view",
      "type": "function"
    },
    {
      "inputs": [
        {
          "internalType": "address",
          "name": "",
          "type": "address"
        },
        {
          "internalType": "string",
          "name": "",
          "type": "string"
        }
      ],
      "name": "soulStakes",
      "outputs": [
        {
          "internalType": "uint256",
          "name": "",
          "type": "uint256"
        }
      ],
      "stateMutability": "view",
      "type": "function"
    },
    {
      "inputs": [
        {
          "internalType": "address",
          "name": "",
          "type": "address"
        },
        {
          "internalType": "string",
          "name": "",
          "type": "string"
        }
      ],
      "name": "soulStakingBlocks",
      "outputs": [
        {
          "internalType": "uint256",
          "name": "",
          "type": "uint256"
        }
      ],
      "stateMutability": "view",
      "type": "function"
    },
    {
      "inputs": [],
      "name": "soulToken",
      "outputs": [
        {
          "internalType": "contract IERC20",
          "name": "",
          "type": "address"
        }
      ],
      "stateMutability": "view",
      "type": "function"
    },
    {
      "inputs": [
        {
          "internalType": "string",
          "name": "nodeId",
          "type": "string"
        },
        {
          "internalType": "bool",
          "name": "isGods",
          "type": "bool"
        },
        {
          "internalType": "uint256",
          "name": "amount",
          "type": "uint256"
        }
      ],
      "name": "stake",
      "outputs": [],
      "stateMutability": "nonpayable",
      "type": "function"
    },
    {
      "inputs": [
        {
          "internalType": "address",
          "name": "newOwner",
          "type": "address"
        }
      ],
      "name": "transferOwnership",
      "outputs": [],
      "stateMutability": "nonpayable",
      "type": "function"
    },
    {
      "inputs": [
        {
          "internalType": "string",
          "name": "nodeId",
          "type": "string"
        },
        {
          "internalType": "bool",
          "name": "isGods",
          "type": "bool"
        },
        {
          "internalType": "uint256",
          "name": "amount",
          "type": "uint256"
        }
      ],
      "name": "unstake",
      "outputs": [],
      "stateMutability": "nonpayable",
      "type": "function"
    },
    {
      "inputs": [
        {
          "internalType": "uint256",
          "name": "_blocksPerDay",
          "type": "uint256"
        }
      ],
      "name": "updateBlocksPerDay",
      "outputs": [],
      "stateMutability": "nonpayable",
      "type": "function"
    },
    {
      "inputs": [
        {
          "internalType": "uint256",
          "name": "_godsRewardRate",
          "type": "uint256"
        },
        {
          "internalType": "uint256",
          "name": "_soulRewardRate",
          "type": "uint256"
        }
      ],
      "name": "updateRewardRates",
      "outputs": [],
      "stateMutability": "nonpayable",
      "type": "function"
    }
  ],
  "bytecode": "0x60806040526154606008556105a06009556105a0600a5534801561002257600080fd5b50604051612fff380380612fff83398181016040528101906100449190610281565b336001600081905550600073ffffffffffffffffffffffffffffffffffffffff168173ffffffffffffffffffffffffffffffffffffffff16036100bf5760006040517f1e4fbdf70000000000000000000000000000000000000000000000000000000081526004016100b691906102d0565b60405180910390fd5b6100ce8161015860201b60201c565b5081600260006101000a81548173ffffffffffffffffffffffffffffffffffffffff021916908373ffffffffffffffffffffffffffffffffffffffff16021790555080600360006101000a81548173ffffffffffffffffffffffffffffffffffffffff021916908373ffffffffffffffffffffffffffffffffffffffff16021790555050506102eb565b6000600160009054906101000a900473ffffffffffffffffffffffffffffffffffffffff16905081600160006101000a81548173ffffffffffffffffffffffffffffffffffffffff021916908373ffffffffffffffffffffffffffffffffffffffff1602179055508173ffffffffffffffffffffffffffffffffffffffff168173ffffffffffffffffffffffffffffffffffffffff167f8be0079c531659141344cd1fd0a4f28419497f9722a3daafe3b4186f6b6457e060405160405180910390a35050565b600080fd5b600073ffffffffffffffffffffffffffffffffffffffff82169050919050565b600061024e82610223565b9050919050565b61025e81610243565b811461026957600080fd5b50565b60008151905061027b81610255565b92915050565b600080604083850312156102985761029761021e565b5b60006102a68582860161026c565b92505060206102b78582860161026c565b9150509250929050565b6102ca81610243565b82525050565b60006020820190506102e560008301846102c1565b92915050565b612d05806102fa6000396000f3fe608060405234801561001057600080fd5b506004361061012c5760003560e01c8063818292ae116100ad578063c1b5ad8111610071578063c1b5ad8114610322578063c6a5d5da14610352578063e605cb1e1461036e578063eb9318db1461038a578063f2fde38b146103ba5761012c565b8063818292ae1461027e5780638bda10e21461029c5780638da5cb5b146102cc57806395ccea67146102ea578063ae63fcc1146103065761012c565b80633b0a9ddc116100f45780633b0a9ddc146101ea5780634cfea68a1461020857806355fbf77914610226578063715018a61461025657806374c38c31146102605761012c565b806310fce2851461013157806313bf951a1461014d57806323c1afc9146101695780632d5f4a1e1461019957806339653cfb146101b7575b600080fd5b61014b60048036038101906101469190612042565b6103d6565b005b61016760048036038101906101629190612200565b6103f0565b005b610183600480360381019061017e91906122ba565b610a32565b6040516101909190612325565b60405180910390f35b6101a1610a6d565b6040516101ae919061239f565b60405180910390f35b6101d160048036038101906101cc91906123ba565b610a93565b6040516101e19493929190612416565b60405180910390f35b6101f2610c1a565b6040516101ff9190612325565b60405180910390f35b610210610c20565b60405161021d9190612325565b60405180910390f35b610240600480360381019061023b9190612200565b610c26565b60405161024d9190612325565b60405180910390f35b61025e610e16565b005b610268610e2a565b604051610275919061239f565b60405180910390f35b610286610e50565b6040516102939190612325565b60405180910390f35b6102b660048036038101906102b191906122ba565b610e56565b6040516102c39190612325565b60405180910390f35b6102d4610e91565b6040516102e1919061246a565b60405180910390f35b61030460048036038101906102ff9190612485565b610ebb565b005b610320600480360381019061031b91906124c5565b610f91565b005b61033c600480360381019061033791906122ba565b6116ab565b6040516103499190612325565b60405180910390f35b61036c60048036038101906103679190612534565b6116e6565b005b610388600480360381019061038391906124c5565b61173b565b005b6103a4600480360381019061039f91906122ba565b611d57565b6040516103b19190612325565b60405180910390f35b6103d460048036038101906103cf9190612561565b611d92565b005b6103de611e18565b8160098190555080600a819055505050565b6103f8611e9f565b8015610714576000600460003373ffffffffffffffffffffffffffffffffffffffff1673ffffffffffffffffffffffffffffffffffffffff1681526020019081526020016000208360405161044d91906125ff565b9081526020016040518091039020549050600081116104a1576040517f08c379a000000000000000000000000000000000000000000000000000000000815260040161049890612673565b60405180910390fd5b6000600660003373ffffffffffffffffffffffffffffffffffffffff1673ffffffffffffffffffffffffffffffffffffffff168152602001908152602001600020846040516104f091906125ff565b90815260200160405180910390205490506000814361050f91906126c2565b905060006105208483600954611ee5565b905060008111610565576040517f08c379a000000000000000000000000000000000000000000000000000000000815260040161055c90612742565b60405180910390fd5b43600660003373ffffffffffffffffffffffffffffffffffffffff1673ffffffffffffffffffffffffffffffffffffffff168152602001908152602001600020876040516105b391906125ff565b908152602001604051809103902081905550600260009054906101000a900473ffffffffffffffffffffffffffffffffffffffff1673ffffffffffffffffffffffffffffffffffffffff1663a9059cbb33836040518363ffffffff1660e01b8152600401610622929190612762565b6020604051808303816000875af1158015610641573d6000803e3d6000fd5b505050506040513d601f19601f8201168201806040525081019061066591906127a0565b6106a4576040517f08c379a000000000000000000000000000000000000000000000000000000000815260040161069b90612819565b60405180910390fd5b856040516106b291906125ff565b60405180910390203373ffffffffffffffffffffffffffffffffffffffff167fad397b0a0ccbb990534392cf39ce3a5b88aa8335cfd0cf3be545272ff5f85cd7600184604051610703929190612848565b60405180910390a350505050610a26565b6000600560003373ffffffffffffffffffffffffffffffffffffffff1673ffffffffffffffffffffffffffffffffffffffff1681526020019081526020016000208360405161076391906125ff565b9081526020016040518091039020549050600081116107b7576040517f08c379a00000000000000000000000000000000000000000000000000000000081526004016107ae906128bd565b60405180910390fd5b6000600760003373ffffffffffffffffffffffffffffffffffffffff1673ffffffffffffffffffffffffffffffffffffffff1681526020019081526020016000208460405161080691906125ff565b90815260200160405180910390205490506000814361082591906126c2565b905060006108368483600a54611ee5565b90506000811161087b576040517f08c379a000000000000000000000000000000000000000000000000000000000815260040161087290612742565b60405180910390fd5b43600760003373ffffffffffffffffffffffffffffffffffffffff1673ffffffffffffffffffffffffffffffffffffffff168152602001908152602001600020876040516108c991906125ff565b908152602001604051809103902081905550600360009054906101000a900473ffffffffffffffffffffffffffffffffffffffff1673ffffffffffffffffffffffffffffffffffffffff1663a9059cbb33836040518363ffffffff1660e01b8152600401610938929190612762565b6020604051808303816000875af1158015610957573d6000803e3d6000fd5b505050506040513d601f19601f8201168201806040525081019061097b91906127a0565b6109ba576040517f08c379a00000000000000000000000000000000000000000000000000000000081526004016109b190612929565b60405180910390fd5b856040516109c891906125ff565b60405180910390203373ffffffffffffffffffffffffffffffffffffffff167fad397b0a0ccbb990534392cf39ce3a5b88aa8335cfd0cf3be545272ff5f85cd7600084604051610a19929190612848565b60405180910390a3505050505b610a2e611f20565b5050565b600760205281600052604060002081805160208101820180518482526020830160208501208183528095505050505050600091509150505481565b600360009054906101000a900473ffffffffffffffffffffffffffffffffffffffff1681565b600080600080600460008673ffffffffffffffffffffffffffffffffffffffff1673ffffffffffffffffffffffffffffffffffffffff16815260200190815260200160002086604051610ae691906125ff565b908152602001604051809103902054600660008773ffffffffffffffffffffffffffffffffffffffff1673ffffffffffffffffffffffffffffffffffffffff16815260200190815260200160002087604051610b4291906125ff565b908152602001604051809103902054600560008873ffffffffffffffffffffffffffffffffffffffff1673ffffffffffffffffffffffffffffffffffffffff16815260200190815260200160002088604051610b9e91906125ff565b908152602001604051809103902054600760008973ffffffffffffffffffffffffffffffffffffffff1673ffffffffffffffffffffffffffffffffffffffff16815260200190815260200160002089604051610bfa91906125ff565b908152602001604051809103902054935093509350935092959194509250565b600a5481565b60085481565b60008115610d21576000600460003373ffffffffffffffffffffffffffffffffffffffff1673ffffffffffffffffffffffffffffffffffffffff16815260200190815260200160002084604051610c7d91906125ff565b908152602001604051809103902054905060008103610ca0576000915050610e10565b6000600660003373ffffffffffffffffffffffffffffffffffffffff1673ffffffffffffffffffffffffffffffffffffffff16815260200190815260200160002085604051610cef91906125ff565b90815260200160405180910390205443610d0991906126c2565b9050610d188282600954611ee5565b92505050610e10565b6000600560003373ffffffffffffffffffffffffffffffffffffffff1673ffffffffffffffffffffffffffffffffffffffff16815260200190815260200160002084604051610d7091906125ff565b908152602001604051809103902054905060008103610d93576000915050610e10565b6000600760003373ffffffffffffffffffffffffffffffffffffffff1673ffffffffffffffffffffffffffffffffffffffff16815260200190815260200160002085604051610de291906125ff565b90815260200160405180910390205443610dfc91906126c2565b9050610e0b8282600a54611ee5565b925050505b92915050565b610e1e611e18565b610e286000611f2a565b565b600260009054906101000a900473ffffffffffffffffffffffffffffffffffffffff1681565b60095481565b600660205281600052604060002081805160208101820180518482526020830160208501208183528095505050505050600091509150505481565b6000600160009054906101000a900473ffffffffffffffffffffffffffffffffffffffff16905090565b610ec3611e18565b60008290508073ffffffffffffffffffffffffffffffffffffffff1663a9059cbb610eec610e91565b846040518363ffffffff1660e01b8152600401610f0a929190612762565b6020604051808303816000875af1158015610f29573d6000803e3d6000fd5b505050506040513d601f19601f82011682018060405250810190610f4d91906127a0565b610f8c576040517f08c379a0000000000000000000000000000000000000000000000000000000008152600401610f8390612995565b60405180910390fd5b505050565b610f99611e9f565b60008111610fdc576040517f08c379a0000000000000000000000000000000000000000000000000000000008152600401610fd390612a01565b60405180910390fd5b8115611342576000600460003373ffffffffffffffffffffffffffffffffffffffff1673ffffffffffffffffffffffffffffffffffffffff1681526020019081526020016000208460405161103191906125ff565b908152602001604051809103902054905081811015611085576040517f08c379a000000000000000000000000000000000000000000000000000000000815260040161107c90612a6d565b60405180910390fd5b6000600660003373ffffffffffffffffffffffffffffffffffffffff1673ffffffffffffffffffffffffffffffffffffffff168152602001908152602001600020856040516110d491906125ff565b9081526020016040518091039020549050600081436110f391906126c2565b905060006111048583600954611ee5565b9050848461111291906126c2565b600460003373ffffffffffffffffffffffffffffffffffffffff1673ffffffffffffffffffffffffffffffffffffffff1681526020019081526020016000208860405161115f91906125ff565b9081526020016040518091039020819055506000858561117f91906126c2565b11156111e65743600660003373ffffffffffffffffffffffffffffffffffffffff1673ffffffffffffffffffffffffffffffffffffffff168152602001908152602001600020886040516111d391906125ff565b9081526020016040518091039020819055505b600260009054906101000a900473ffffffffffffffffffffffffffffffffffffffff1673ffffffffffffffffffffffffffffffffffffffff1663a9059cbb3383886112319190612a8d565b6040518363ffffffff1660e01b815260040161124e929190612762565b6020604051808303816000875af115801561126d573d6000803e3d6000fd5b505050506040513d601f19601f8201168201806040525081019061129191906127a0565b6112d0576040517f08c379a00000000000000000000000000000000000000000000000000000000081526004016112c790612819565b60405180910390fd5b866040516112de91906125ff565b60405180910390203373ffffffffffffffffffffffffffffffffffffffff167f2d46deb58757ba574397546340e9698e9f9f9ffe380ddda0ffdb15325ec847976001888560405161133193929190612ac1565b60405180910390a35050505061169e565b6000600560003373ffffffffffffffffffffffffffffffffffffffff1673ffffffffffffffffffffffffffffffffffffffff1681526020019081526020016000208460405161139191906125ff565b9081526020016040518091039020549050818110156113e5576040517f08c379a00000000000000000000000000000000000000000000000000000000081526004016113dc90612b44565b60405180910390fd5b6000600760003373ffffffffffffffffffffffffffffffffffffffff1673ffffffffffffffffffffffffffffffffffffffff1681526020019081526020016000208560405161143491906125ff565b90815260200160405180910390205490506000814361145391906126c2565b905060006114648583600a54611ee5565b9050848461147291906126c2565b600560003373ffffffffffffffffffffffffffffffffffffffff1673ffffffffffffffffffffffffffffffffffffffff168152602001908152602001600020886040516114bf91906125ff565b908152602001604051809103902081905550600085856114df91906126c2565b11156115465743600760003373ffffffffffffffffffffffffffffffffffffffff1673ffffffffffffffffffffffffffffffffffffffff1681526020019081526020016000208860405161153391906125ff565b9081526020016040518091039020819055505b600360009054906101000a900473ffffffffffffffffffffffffffffffffffffffff1673ffffffffffffffffffffffffffffffffffffffff1663a9059cbb3383886115919190612a8d565b6040518363ffffffff1660e01b81526004016115ae929190612762565b6020604051808303816000875af11580156115cd573d6000803e3d6000fd5b505050506040513d601f19601f820116820180604052508101906115f191906127a0565b611630576040517f08c379a000000000000000000000000000000000000000000000000000000000815260040161162790612929565b60405180910390fd5b8660405161163e91906125ff565b60405180910390203373ffffffffffffffffffffffffffffffffffffffff167f2d46deb58757ba574397546340e9698e9f9f9ffe380ddda0ffdb15325ec847976000888560405161169193929190612ac1565b60405180910390a3505050505b6116a6611f20565b505050565b600460205281600052604060002081805160208101820180518482526020830160208501208183528095505050505050600091509150505481565b6116ee611e18565b60008111611731576040517f08c379a000000000000000000000000000000000000000000000000000000000815260040161172890612bd6565b60405180910390fd5b8060088190555050565b611743611e9f565b60008111611786576040517f08c379a000000000000000000000000000000000000000000000000000000000815260040161177d90612a01565b60405180910390fd5b8115611a3a576000600460003373ffffffffffffffffffffffffffffffffffffffff1673ffffffffffffffffffffffffffffffffffffffff168152602001908152602001600020846040516117db91906125ff565b90815260200160405180910390205490506000600660003373ffffffffffffffffffffffffffffffffffffffff1673ffffffffffffffffffffffffffffffffffffffff1681526020019081526020016000208560405161183b91906125ff565b90815260200160405180910390205490506000821115611887576000814361186391906126c2565b905060006118748483600954611ee5565b905080846118829190612a8d565b935050505b82826118939190612a8d565b600460003373ffffffffffffffffffffffffffffffffffffffff1673ffffffffffffffffffffffffffffffffffffffff168152602001908152602001600020866040516118e091906125ff565b90815260200160405180910390208190555043600660003373ffffffffffffffffffffffffffffffffffffffff1673ffffffffffffffffffffffffffffffffffffffff1681526020019081526020016000208660405161194091906125ff565b908152602001604051809103902081905550600260009054906101000a900473ffffffffffffffffffffffffffffffffffffffff1673ffffffffffffffffffffffffffffffffffffffff166323b872dd3330866040518463ffffffff1660e01b81526004016119b193929190612bf6565b6020604051808303816000875af11580156119d0573d6000803e3d6000fd5b505050506040513d601f19601f820116820180604052508101906119f491906127a0565b611a33576040517f08c379a0000000000000000000000000000000000000000000000000000000008152600401611a2a90612819565b60405180910390fd5b5050611ce4565b6000600560003373ffffffffffffffffffffffffffffffffffffffff1673ffffffffffffffffffffffffffffffffffffffff16815260200190815260200160002084604051611a8991906125ff565b90815260200160405180910390205490506000600760003373ffffffffffffffffffffffffffffffffffffffff1673ffffffffffffffffffffffffffffffffffffffff16815260200190815260200160002085604051611ae991906125ff565b90815260200160405180910390205490506000821115611b355760008143611b1191906126c2565b90506000611b228483600a54611ee5565b90508084611b309190612a8d565b935050505b8282611b419190612a8d565b600560003373ffffffffffffffffffffffffffffffffffffffff1673ffffffffffffffffffffffffffffffffffffffff16815260200190815260200160002086604051611b8e91906125ff565b90815260200160405180910390208190555043600760003373ffffffffffffffffffffffffffffffffffffffff1673ffffffffffffffffffffffffffffffffffffffff16815260200190815260200160002086604051611bee91906125ff565b908152602001604051809103902081905550600360009054906101000a900473ffffffffffffffffffffffffffffffffffffffff1673ffffffffffffffffffffffffffffffffffffffff166323b872dd3330866040518463ffffffff1660e01b8152600401611c5f93929190612bf6565b6020604051808303816000875af1158015611c7e573d6000803e3d6000fd5b505050506040513d601f19601f82011682018060405250810190611ca291906127a0565b611ce1576040517f08c379a0000000000000000000000000000000000000000000000000000000008152600401611cd890612929565b60405180910390fd5b50505b82604051611cf291906125ff565b60405180910390203373ffffffffffffffffffffffffffffffffffffffff167f4cc7cbb154a0aa40411d967c3452fc687ac53785210fb37dd022a2d5bf10608b8484604051611d42929190612848565b60405180910390a3611d52611f20565b505050565b600560205281600052604060002081805160208101820180518482526020830160208501208183528095505050505050600091509150505481565b611d9a611e18565b600073ffffffffffffffffffffffffffffffffffffffff168173ffffffffffffffffffffffffffffffffffffffff1603611e0c5760006040517f1e4fbdf7000000000000000000000000000000000000000000000000000000008152600401611e03919061246a565b60405180910390fd5b611e1581611f2a565b50565b611e20611ff0565b73ffffffffffffffffffffffffffffffffffffffff16611e3e610e91565b73ffffffffffffffffffffffffffffffffffffffff1614611e9d57611e61611ff0565b6040517f118cdaa7000000000000000000000000000000000000000000000000000000008152600401611e94919061246a565b60405180910390fd5b565b600260005403611edb576040517f3ee5aeb500000000000000000000000000000000000000000000000000000000815260040160405180910390fd5b6002600081905550565b60006064600854611ef69190612c2d565b828486611f039190612c2d565b611f0d9190612c2d565b611f179190612c9e565b90509392505050565b6001600081905550565b6000600160009054906101000a900473ffffffffffffffffffffffffffffffffffffffff16905081600160006101000a81548173ffffffffffffffffffffffffffffffffffffffff021916908373ffffffffffffffffffffffffffffffffffffffff1602179055508173ffffffffffffffffffffffffffffffffffffffff168173ffffffffffffffffffffffffffffffffffffffff167f8be0079c531659141344cd1fd0a4f28419497f9722a3daafe3b4186f6b6457e060405160405180910390a35050565b600033905090565b6000604051905090565b600080fd5b600080fd5b6000819050919050565b61201f8161200c565b811461202a57600080fd5b50565b60008135905061203c81612016565b92915050565b6000806040838503121561205957612058612002565b5b60006120678582860161202d565b92505060206120788582860161202d565b9150509250929050565b600080fd5b600080fd5b6000601f19601f8301169050919050565b7f4e487b7100000000000000000000000000000000000000000000000000000000600052604160045260246000fd5b6120d58261208c565b810181811067ffffffffffffffff821117156120f4576120f361209d565b5b80604052505050565b6000612107611ff8565b905061211382826120cc565b919050565b600067ffffffffffffffff8211156121335761213261209d565b5b61213c8261208c565b9050602081019050919050565b82818337600083830152505050565b600061216b61216684612118565b6120fd565b90508281526020810184848401111561218757612186612087565b5b612192848285612149565b509392505050565b600082601f8301126121af576121ae612082565b5b81356121bf848260208601612158565b91505092915050565b60008115159050919050565b6121dd816121c8565b81146121e857600080fd5b50565b6000813590506121fa816121d4565b92915050565b6000806040838503121561221757612216612002565b5b600083013567ffffffffffffffff81111561223557612234612007565b5b6122418582860161219a565b9250506020612252858286016121eb565b9150509250929050565b600073ffffffffffffffffffffffffffffffffffffffff82169050919050565b60006122878261225c565b9050919050565b6122978161227c565b81146122a257600080fd5b50565b6000813590506122b48161228e565b92915050565b600080604083850312156122d1576122d0612002565b5b60006122df858286016122a5565b925050602083013567ffffffffffffffff811115612300576122ff612007565b5b61230c8582860161219a565b9150509250929050565b61231f8161200c565b82525050565b600060208201905061233a6000830184612316565b92915050565b6000819050919050565b600061236561236061235b8461225c565b612340565b61225c565b9050919050565b60006123778261234a565b9050919050565b60006123898261236c565b9050919050565b6123998161237e565b82525050565b60006020820190506123b46000830184612390565b92915050565b600080604083850312156123d1576123d0612002565b5b600083013567ffffffffffffffff8111156123ef576123ee612007565b5b6123fb8582860161219a565b925050602061240c858286016122a5565b9150509250929050565b600060808201905061242b6000830187612316565b6124386020830186612316565b6124456040830185612316565b6124526060830184612316565b95945050505050565b6124648161227c565b82525050565b600060208201905061247f600083018461245b565b92915050565b6000806040838503121561249c5761249b612002565b5b60006124aa858286016122a5565b92505060206124bb8582860161202d565b9150509250929050565b6000806000606084860312156124de576124dd612002565b5b600084013567ffffffffffffffff8111156124fc576124fb612007565b5b6125088682870161219a565b9350506020612519868287016121eb565b925050604061252a8682870161202d565b9150509250925092565b60006020828403121561254a57612549612002565b5b60006125588482850161202d565b91505092915050565b60006020828403121561257757612576612002565b5b6000612585848285016122a5565b91505092915050565b600081519050919050565b600081905092915050565b60005b838110156125c25780820151818401526020810190506125a7565b60008484015250505050565b60006125d98261258e565b6125e38185612599565b93506125f38185602086016125a4565b80840191505092915050565b600061260b82846125ce565b915081905092915050565b600082825260208201905092915050565b7f4e6f20474f4453207374616b6564000000000000000000000000000000000000600082015250565b600061265d600e83612616565b915061266882612627565b602082019050919050565b6000602082019050818103600083015261268c81612650565b9050919050565b7f4e487b7100000000000000000000000000000000000000000000000000000000600052601160045260246000fd5b60006126cd8261200c565b91506126d88361200c565b92508282039050818111156126f0576126ef612693565b5b92915050565b7f4e6f207265776172647320746f20636c61696d00000000000000000000000000600082015250565b600061272c601383612616565b9150612737826126f6565b602082019050919050565b6000602082019050818103600083015261275b8161271f565b9050919050565b6000604082019050612777600083018561245b565b6127846020830184612316565b9392505050565b60008151905061279a816121d4565b92915050565b6000602082840312156127b6576127b5612002565b5b60006127c48482850161278b565b91505092915050565b7f474f4453207472616e73666572206661696c6564000000000000000000000000600082015250565b6000612803601483612616565b915061280e826127cd565b602082019050919050565b60006020820190508181036000830152612832816127f6565b9050919050565b612842816121c8565b82525050565b600060408201905061285d6000830185612839565b61286a6020830184612316565b9392505050565b7f4e6f20534f554c207374616b6564000000000000000000000000000000000000600082015250565b60006128a7600e83612616565b91506128b282612871565b602082019050919050565b600060208201905081810360008301526128d68161289a565b9050919050565b7f534f554c207472616e73666572206661696c6564000000000000000000000000600082015250565b6000612913601483612616565b915061291e826128dd565b602082019050919050565b6000602082019050818103600083015261294281612906565b9050919050565b7f5472616e73666572206661696c65640000000000000000000000000000000000600082015250565b600061297f600f83612616565b915061298a82612949565b602082019050919050565b600060208201905081810360008301526129ae81612972565b9050919050565b7f416d6f756e74206d7573742062652067726561746572207468616e2030000000600082015250565b60006129eb601d83612616565b91506129f6826129b5565b602082019050919050565b60006020820190508181036000830152612a1a816129de565b9050919050565b7f4e6f7420656e6f75676820474f4453207374616b656400000000000000000000600082015250565b6000612a57601683612616565b9150612a6282612a21565b602082019050919050565b60006020820190508181036000830152612a8681612a4a565b9050919050565b6000612a988261200c565b9150612aa38361200c565b9250828201905080821115612abb57612aba612693565b5b92915050565b6000606082019050612ad66000830186612839565b612ae36020830185612316565b612af06040830184612316565b949350505050565b7f4e6f7420656e6f75676820534f554c207374616b656400000000000000000000600082015250565b6000612b2e601683612616565b9150612b3982612af8565b602082019050919050565b60006020820190508181036000830152612b5d81612b21565b9050919050565b7f426c6f636b732070657220646179206d7573742062652067726561746572207460008201527f68616e2030000000000000000000000000000000000000000000000000000000602082015250565b6000612bc0602583612616565b9150612bcb82612b64565b604082019050919050565b60006020820190508181036000830152612bef81612bb3565b9050919050565b6000606082019050612c0b600083018661245b565b612c18602083018561245b565b612c256040830184612316565b949350505050565b6000612c388261200c565b9150612c438361200c565b9250828202612c518161200c565b91508282048414831517612c6857612c67612693565b5b5092915050565b7f4e487b7100000000000000000000000000000000000000000000000000000000600052601260045260246000fd5b6000612ca98261200c565b9150612cb48361200c565b925082612cc457612cc3612c6f565b5b82820490509291505056fea26469706673582212205c48cc82087a9a424879cd5af4435a4de3ad2a89595cb71d0d9f5cc1a93fc12c64736f6c634300081c0033",
  "linkReferences": {},
  "deployedLinkReferences": {}
}